:10001E00D5E3BDADB4F3D1A7B9E2B5E7D1A7D4BA54
:10002E0000B5E7D7D3CFB5CDB3C9E8BCC600BBC6C4
:10003E00C2A1EED4000000323032302D2D30380007
:10004E00CFB5CDB3BDF8D0D0B0B4BCFCBCECB2E2F1
:10005E00004B45595F56414C55453A3031004B45A2
:10006E00595F56414C55453A3032004B45595F5613
:10007E00414C55453A3033004B45595F56414C552E
:10008E00453A3034004B45595F56414C55453A3050
:10009E0035004B45595F56414C55453A3036004B6D
:1000AE0045595F56414C55453A3037004B45595FDF
:1000BE0056414C55453A3038004B45595F56414CE8
:1000CE0055453A3039004B45595F56414C55453AE6
:1000DE003130004B45595F56414C55453A31310050
:1000EE004B45595F56414C55453A3132004B4559B7
:1000FE005F56414C55453A3133004B45595F564199
:10010E004C55453A3134004B45595F56414C554597
:10011E003A3135004B45595F56414C55453A3136CB
:10012E0000D2F4C0D6B2A5B7C5B2E2CAD400283404
:10013E002C31293A4C656D6F6E7E00CFB5CDB3BDB7
:10014E00F8D0D0B9E2F1EEBCECB2E200313AB8DF51
:10015E0000313AB5CD00323AB8DF00323AB5CD00B3
:10016E00333AB8DF00333AB5CD00343AB8DF003455
:10017E003AB5CD00353AB8DF00353AB5CD00363A4E
:10018E00B8DF00363AB5CD00373AB8DF2020003759
:10019E003AB5CD202000D0A1D0C7D0C7C1B7CFB0BF
:1001AE000028312C33293A53746172740028322C92
:1001BE0033293A456E640028342C33293A5265733C
:1001CE0074617274007265636F726465645F736FDD
:1001DE006E6700446F52654D6900D0A1D0C7D0C77D
:1001EE00004C656D6F6E00D2D1D6D0D6B92C2832A8
:1001FE002C3429BDD3D7C500506C6179696E672D3B
:10020E002D2D003000314D00314C00314800334D62
:10021E0000334C00334800344D00344C0034480059
:10022E00354D00354C00354800364D00364C003605
:10023E004800374D00374C00374800536F6E672D1E
:10024E004E6F74657300C7EBD1A1D4F1C7FAC4BF6A
:10025E003A0028342C34293AB7B5BBD80028312CB3
:10026E0031293A446F52654D690028312C34293AB0
:10027E00CFC2D2BBD2B30028312C31293AD0A1D073
:10028E00C7D0C70028312C32293A4C656D6F6E00ED
:10029E00BBB6D3ADCAB9D3C3CEDECFD2C7D9210038
:1002AE00B0B428312C31293AB5AFD7E000B0B4281C
:1002BE00312C32293AB8E8C7FA00B0B428312C33C1
:1002CE00293ACFC2D2BBD2B300B0B428312C3129D7
:1002DE003AC2BCD2F400B0B428312C32293AB2A5BD
:1002EE00B7C5C2BCD2F400B0B428312C33293ABD04
:1002FE00DAD7E0B4F3CAA600B0B428342C34293AC5
:10030E00C9CFD2BBD2B300B2A5B7C5C2BCD2F42DF1
:10031E002D005265636F726465642D536F6E677343
:10032E0000D7BCB1B8B5AFD7E00028312C34292D99
:10033E004C2C28322C34292D4D0028332C34292DC9
:10034E00482C28342C34292D426B00506C6179696D
:10035E006E672D00D7BCB1B8C2BCD2F42D2D0044AF
:10036E00656C6574696E672D2D00C2BCD2F4BDE15B
:10037E00CAF800C1B7CFB0BDE1CAF80052657375B7
:10038E006C742D2D0047726561742100476F6F6488
:10039E007E7E004E6963657E7E004E6F742D476FC4
:1003AE006F640001060126014A015E018801B80151
:1003BE00EEFC43FCABFD08FD32FD81FDC7FE05F8EA
:1003CE008CF95BFA15FA67FB04FB90FC0CFC44FC01
:1003DE00ACFD09FD34FD82FDC8FE06FE22FE57FE71
:1003EE0086FE99FEC0FEE3FE020102030406080A21
:1003FE000C1014181E0801010801000A01000B015F
:10040E00000C01000D01000E01000000000F0000A5
:10041E001000001101000F00000D00010D01001071
:10042E0001000E01000C00000A00010A01000E017D
:10043E00000D01000C00000800010801000C010174
:10044E000A03000900000A00000B03000F01000E52
:10045E0000010E00010F00000C03000B01000A0248
:10046E00000400000B03000F01000E00010E00013E
:10047E000D00000C04000F00001000001101000F11
:10048E0000000D00010D01001001000E01000C0016
:10049E00000A00010A01000E01000D01000C00000F
:1004AE000800010801000C01000A04000900000AFE
:1004BE0000000B03000C01000B00010B00010C00EF
:1004CE00000A01000C01000F0100110100100200D2
:1004DE001000001000000F01000F00000F050000BB
:1004EE0000000F01000F01001301001301001401A1
:1004FE00001401001302001201001201001101008C
:10050E001101001001001001000F02001301001371
:10051E000100120100120100110100110100100270
:10052E000013010013010008010012010011010067
:10053E001101001002000F01000F01001301001342
:10054E000100140100140100130200120100120137
:10055E00001101001101001001001001000F020036
:10056E000000000000F88CF95BFA15FA67FB04FB3B
:10057E0090FC0CFC44FCACFD09FD34FD82FDC8FE74
:10058E0006FE22FE57FE86FE99FEC0FEE3FE021018
:10059E000010001004127EFF441244124412441242
:1005AE004422442244224422444A7C8444000000D3
:1005BE004040403040104487FE644424440C4414B0
:1005CE004427FCE44424442444244427FC240422E9
:1005DE00081108111000207FFE400280041FE00069
:1005EE00400184FFFE010001000100050002000031
:1005FE00000004FFFE0004080404040204022400A8
:10060E00C403040C0430041004004400280010003D
:10061E008000800140014002207C1F20021004084F
:10062E00080410088809481634180C200200000827
:10063E0010081008107FFE20041248081005A002B2
:10064E00400180018007E00990118811881188000F
:10065E001008387DC049004900490449FE49104937
:10066E0010491049104A107A10441008100010FF5B
:10067E00FFFFFFFFFFFFFE0FFFFFFFFFFFFFFFFF6D
:10068E00FFFFFFFFFFFFF801FFFFFFFFFFFFFFFF71
:10069E00FFFFFFA000FFF0007F000003FFFFFFFF42
:1006AE00FFFFC000001FE00038000003FFFFFFFF48
:1006BE00FFFFC000000FE00070000007FFFFFFFF0C
:1006CE00FFFFE0000007C003E0000007FFFFFFFF91
:1006DE00FFFFF0000003C00FC000001FFFFFFFFF71
:1006EE00FFFFFC000003C007C000003FFFFFFFFF3D
:1006FE00FFFFFFC00001C0078000FBFFFFFFFFFFF1
:10070E00FFFFFFFF000180038000FFFFFFFFFFFFE1
:10071E00FFFFFFFF800080030000FFFFFFFFFFFFD2
:10072E00FFFFFFEF800000030000017FFFFFFFFFD0
:10073E00FFFFFE00000000000000007FFFFFFFFF34
:10074E00FFFFFF0000000000000000FFFFFFFFFFA3
:10075E00FFFFFF8000000000000000FFFFFFFFFF13
:10076E00FFFFFFC000000000000001FFFFFFFFFFC2
:10077E00FFFFFFE000000000000003FFFFFFFFFF90
:10078E00FFFFFFFC6000000000041FFFFFFFFFFFE4
:10079E00FFFFFFFFF0000000000FFFFFFFFFFFFF56
:1007AE00FFFFFFFFF8000000000FFFFFFFFFFFFF3E
:1007BE00FFFFFFFFF8000000001FFFFFFFFFFFFF1E
:1007CE00FFFFFFFC000000000000BFFFFFFFFFFF68
:1007DE00FFFFFFFC0000000000003FFFFFFFFFFFD8
:1007EE00FFFFFFFE0000000000007FFFFFFFFFFF86
:1007FE00FFFFFFFE0000000000007FFFFFFFFFFF76
:10080E00FFFFFFFF800000000001FFFFFFFFFFFF63
:10081E00FFFFFFFFE0000000004FFFFFFFFFFFFFA5
:10082E00FFFFFFFFFF00000000FFFFFFFFFFFFFFC6
:10083E00FFFFFFFFFF80000000FFFFFFFFFFFFFF36
:10084E00FFFFFFFFFF80000000FFFFFFFFFFFFFF26
:10085E00FFFFFFFFE00000000003FFFFFFFFFFFFB1
:10086E00FFFFFFFFF00000000007FFFFFFFFFFFF8D
:10087E00FFFFFFFFF0000000000FFFFFFFFFFFFF75
:10088E00FFFFFFFFF8000000000FFFFFFFFFFFFF5D
:10089E00FFFFFFFFFE000000003FFFFFFFFFFFFF17
:1008AE00FFFFFFFFFFE0000007FFFFFFFFFFFFFF5F
:1008BE00FFFFFFFFFFF000000FFFFFFFFFFFFFFF37
:1008CE00FFFFFFFFFFF000000FFFFFFFFFFFFFFF27
:1008DE00FFFFFFFFFF00000000FFFFFFFFFFFFFF16
:1008EE00FFFFFFFFFF00000000FFFFFFFFFFFFFF06
:1008FE00FFFFFFFFFF80000001FFFFFFFFFFFFFF75
:10090E00FFFFFFFFFFC0000001FFFFFFFFFFFFFF24
:10091E00FFFFFFFFFFE0000003FFFFFFFFFFFFFFF2
:10092E00FFFFFFFFFFFE00001FFFFFFFFFFFFFFFA8
:10093E00FFFFFFFFFFFF0000FFFFFFFFFFFFFFFFB7
:10094E00FFFFFFFFFFFF8001FFFFFFFFFFFFFFFF26
:10095E00FFFFFFFFFFFF8001FFFFFFFFFFFFFFFF16
:10096E00FFFFFFFFFFFF8001FFFFFFFFFFFFFFFF06
:10097E00FFFFFFFFFFFF0000FFFFFFFFFFFFFFFF77
:10098E00FFFFFFFFFFFE00007FFFFFFFFFFFFFFFE8
:10099E00FFFFFFFFFFFE00007FFFFFFFFFFFFFFFD8
:1009AE00FFFFFFFFFFFF0000FFFFFFFFFFFFFFFF47
:1009BE00FFFFFFFFFFFF8000FFFFFFFFFFFFFFFFB7
:1009CE00FFFFFFFFFFFF8001FFFFFFFFFFFFFFFFA6
:1009DE00FFFFFFFFFFFFC003FFFFFFFFFFFFFFFF54
:1009EE00FFFFFFFFFFFFE003FFFFFFFFFFFFFFFF24
:1009FE00FFFFFFFFFFFFE007FFFFFFFFFFFFFFFF10
:100A0E00FFFFFFFFFFFFF007FFFFFFFFFFFFFFFFEF
:100A1E00FFFFFFFFFFFFF80FFFFFFFFFFFFFFFFFCF
:100A2E00FFFFFFFFFFFFF81FFFFFFFFFFFFFFFFFAF
:100A3E00FFFFFFFFFFFFFC1FFFFFFFFFFFFFFFFF9B
:100A4E00FFFFFFFFFFFFFE3FFFFFFFFFFFFFFFFF69
:100A5E00FFFFFFFFFFFFFE7FFFFFFFFFFFFFFFFF19
:100A6E00FFFFFFFFFFFFFF7FFFFFFFFFFFFFFF0106
:100A7E0002030405060708090A0B0C0D0E0F1011D0
:100A8E0012131415161718191A1B1C1D1E1F2021C0
:100A9E0022232425262728292A2B2C2D2E2F3031B0
:100AAE0032333435363738393A3B3C3D3E3F4041A0
:100ABE0042434445464748494A4B4C4D4E4F505190
:100ACE0052535455565758595A5B5C5D5E5F606180
:030ADE00626364EC
:101E9600013F00012A00012C00013800013A00012F
:101EA6002B00013000013D00013E010137000134E5
:101EB60000012F01C105C101C106C100C102C10750
:101EC600C104C1030128000424000000006064006E
:101ED60000000000000000000000000000000000FC
:101EE60000000000000000000000000000000000EC
:101EF60000000000000000000000000000000000DC
:101F060000000000000000000000000000000000CB
:101F160000000000000000000000000000000000BB
:101F260000000000000000000000000000000000AB
:0B1F3600000000000001220001230257
:100AE100E4F5C975CA3075B3C0F5B4F5B1F5B21204
:100AF10025147549FF754A06754B7D7B207D107F56
:100B010080121FE712278DC2CCC2CD1224081227F2
:100B110084EF54F064F06003020BB012278D1227AA
:100B210084EF54F064F06003020BB0F5B3F5B475D3
:100B31005AFF755B00755C1E7B10FD7F011224530B
:100B4100755AFF755B00755C2F7B0C7D017F02126E
:100B510024537BFF7A06791D12236C755AFF755B4E
:100B610000755C3C7B087D027F03122453755AFF9C
:100B7100755B00755C457B087D027F041224537B05
:100B8100FF7A05799D12236C7BFF7A0579BD1223CB
:100B91006C7BFF7A0579DD12236C7BFF7A0579FD89
:100BA10012236C7BFF7A06791D12236C020B1F1234
:100BB1002784EF30E703020D4D7590F012278D75F4
:100BC1005AFF755B00755C4E7B10E4FD7F01020DE1
:100BD10047122784EF30E703020B0CE59054F064D1
:100BE100F060EE7F647E001226E0E59054F064F040
:100BF10060DF1221048F36E5361218400C310B0CE0
:100C0100430C0C550D0C670E0C79150C8B160C9DB5
:100C1100170CAF180CC11F0CD2200CE3210CF422CD
:100C21000D05290D162A0D272B0D382C00000BD28E
:100C3100755AFF755B00755C5F7B0C7D017F02025D
:100C41000D47755AFF755B00755C6C7B0C7D017FF0
:100C510002020D47755AFF755B00755C797B0C7D4F
:100C6100017F02020D47755AFF755B00755C867B3B
:100C71000C7D017F02020D47755AFF755B00755CA3
:100C8100937B0C7D017F02020D47755AFF755B0056
:100C9100755CA07B0C7D017F02020D47755AFF75C3
:100CA1005B00755CAD7B0C7D017F02020D47755ABF
:100CB100FF755B00755CBA7B0C7D017F02020D47FD
:100CC100755AFF755B00755CC77B0C7D017F0280E7
:100CD10075755AFF755B00755CD47B0C7D017F02D5
:100CE1008064755AFF755B00755CE17B0C7D017F4B
:100CF100028053755AFF755B00755CEE7B0C7D01BC
:100D01007F028042755AFF755B00755CFB7B0C7D31
:100D1100017F028031755AFF755B01755C087B0CA0
:100D21007D017F028020755AFF755B01755C157B23
:100D31000C7D017F02800F755AFF755B01755C2286
:100D41007B0C7D017F02122453020BD2122784EF08
:100D510020E63812278D122784EF30E603020B0CB0
:100D6100755AFF755B01755C2F7B087D027F01124F
:100D71002453755AFF755B01755C3C7B0C7D017FCB
:100D8100021224537F03121C3F80CB122784EF30C1
:100D9100E503020E7E12278D755AFF755B01755CA6
:100DA100497B10E4FD7F011224537580FF7531FFEB
:100DB1007532037533BF122784EF30E503020B0C44
:100DC100E580547F647F7003020B0CE5807BFF306C
:100DD100E0067A01795A80047A01795F754A027FC7
:100DE10090122499E5807BFF30E1067A01796480D5
:100DF100047A017969754A027F92122499E5807B10
:100E0100FF30E2067A01796E80047A017973754ABE
:100E1100027F94122499E5807BFF30E3067A017901
:100E21007880047A01797D754A027F96122499E5CA
:100E3100807BFF30E4067A01798280047A01798728
:100E4100754A027F88122499E5807BFF30E5067A96
:100E510001798C80047A017991754A027F8A122482
:100E610099E5807BFF30E6067A01799680047A0164
:100E7100799D754A037F8C122499020DB71227843C
:070E8100EF30E403020B0C4B
:100E88007543017590F0122408C200122784EF30D0
:100E9800E403020B0CE59054F064F060EE122104B8
:100EA8008F36E53624F46037147003020F5C24E1B2
:100EB8007003020FC3242170D212278D7580FF752D
:100EC80031FF7532037533DB122776E52FB4010540
:100ED800121A5880B6E52FB402B112135B80ACE544
:050EE8002F64017050B1
:080EED00D2081223BD30089E5B
:100EF5001221048F44E54424F2600F24E260352476
:0A0F05002170EA7F01121C3F80E317
:080F0F00D2091224DB3009DBDA
:100F17001221048F45E54524F4600C24E0600F247A
:100F27002170EA7F0280027F03121C3F80DFC20923
:020F370080DB5D
:040F3900C20880B5B5
:100F3D00E52F64026003020E9312260BD2CCD2CDA4
:100F4D007F037E001225E8E4FF121C3F020E93E59D
:100F5D002FB40105752F028057E52F64026003023F
:100F6D000E9312278D755AFF755B01755CA47B0A74
:100F7D00E4FD7F01122453755AFF755B01755CAF5B
:100F8D007B0BE4FD7F02122453755AFF755B0175CF
:100F9D005CBB7B09E4FD7F03122453755AFF755B1F
:100FAD0001755CC57B0DE4FD7F04122453120FCF38
:100FBD00122321020E93752F01754301122408028D
:020FCD000E9381
:03000B000226C00A
:1026C000C0D075D000C006C007C28C0537AF377EBA
:1026D00000BE1305BF8802D205D007D006D0D03285
:03001B00020003DD
:05000300B2C5053D320D
:10218D008D1DE4C39FFFE49EFE74019400FDE49455
:10219D00008F278E268D25F524AF1DE4FCFDFEABAB
:1021AD0027AA26A925A824121723E47B64FAF9F897
:1021BD001217AE8E2D8F2EC3E527952EF53CE526F5
:1021CD00952DF53BC3E4952EF52EE4952DF52DC3F8
:1021DD00E4953CF53CE4953BF53BE52DF52A852E44
:1021ED002CE53BF538853C3A852A8D852C8BD2CC58
:0521FD00C2C5D28E22D4
:10275000438901758AFC758C18D2A9D2AFC28CE46A
:03276000F5372228
:0E277600C28E438901D2ABD2AFC2CCC2CD22FB
:10273A00E5C030E604D2CC8002C2CCE5C030E70363
:06274A00D2CD22C2CD2217
:101C3F00754D01E4F54F122776D202EF146021148F
:101C4F00603214604624037057754601754700755E
:101C5F0048007549FF754A01754BD3754C0E80408E
:101C6F007546FF7547047548037549FF754A017539
:101C7F004BE180127546FF7547047548F07549FFB3
:101C8F00754A01754BE8754C0680157546FF75470B
:101C9F000475481B7549FF754A01754BEF754C0567
:101CAF0012257F1225E412278D200203021DD47501
:101CBF0090F0E59054F064F060051221048F50E528
:051CCF0050640E704698
:101CD400F5517590F0C28EC2C5755AFF755B0175DA
:101CE4005CF57B10E4FD7F04122453D2CCD2CDE505
:101CF4009054F064F060E21221048F51E551B4185D
:101D04000512257F800AE551B42CCEC2021223BDF0
:041D1400D28ED2C5D4
:101D1800800DE550B42C087590F0C202021DD4ABBA
:101D280046AA47A948854F82758300121681F54E49
:101D3800AF4F7E008F828E83A3121681F5348F8277
:101D48008E83A3A312168124FF9204A204920CE5A9
:101D58004D24FF920DAD34AF4E12187CE4F54DE5DD
:101D68004E7006C28EC202806320042FE54FD394C2
:101D78000140287E0074FD254FF582EE34FFF5837F
:101D8800AB46AA47A948121681B54E0FC28EC2C5E6
:101D9800D2CCD2CD7F64122720D28EE54E25E02406
:101DA80071F582E43405F583E493FC740193FDEC4A
:101DB800F58DEDF58BD28EE5349003F793FF7E0019
:0E1DC8001225E87403254FF54F021CB8C28E99
:011DD60022EA
:0927840075B0FFE5B054F0FF222E
:10210400E4F552F5537590F0E59054F0FF54F0FE69
:10211400BEF0037F002275900FE590540F4FF41228
:102124001840215A11216612217214217E18215D52
:1021340021216922217524218128216041216C42B9
:10214400217844218448216381216F82217B842169
:1021540087880000218A7F0B227F0C227F0D227F3B
:102164000E227F15227F16227F17227F18227F1FBF
:10217400227F20227F21227F22227F29227F2A225E
:092184007F2B227F2C227F002218
:1026E000E4FDFCC3ED9FEC9E5015E4FBFA0BBB0030
:0F26F000010AEB64024A70F50DBD00010C80E495
:0126FF0022B8
:102720007D0BE4FBFAC3EB9FEA9E500DAC051DEC5C
:0927300070FA0BBB00010A80ECF9
:01273900227D
:0425E4007F057E00F1
:0425E8008E528F532D
:1025EC0075540075550B900000C3E5829553E58337
:0E25FC009552500A7F267E02122720A380EB04
:01260A0022AD
:08257F00AB49AA4AA94BAD4C7F
:102587008B528A5389548D55755AFF755B02755C5A
:10259700067B0AE4FD7F0112245385525A85535B5B
:0C25A70085545CAB55E4FD7F0202245318
:101866007D03AF3E1225B7E53E75F007A42403FFBE
:06187600C20CC20D7D0151
:04187C008F528D53A7
:10188000300D0912278DE4F522752302E522D39449
:1018900007400FE4F5220523E523D39404400375A4
:1018A0002302E552700C7554FF75550275561102EE
:1018B0001A31E55275F00784E5F0B40700400302E1
:1018C0001A319018C9F8282873021A080218DE0283
:1018D00018F602192E02196602199E0219D3E55252
:1018E000D394074008E552940E50028016E552C387
:1018F0009407502E8020E552D394074012E552946D
:101900000E500C7554FF755502755613021A31E5C9
:1019100052C39407500C7554FF7555027556160244
:101920001A317554FF755502755619021A31E55270
:10193000D394074012E552940E500C7554FF755520
:101940000275561C021A31E552C39407500C7554A7
:10195000FF75550275561F021A317554FF755502F1
:10196000755622021A31E552D394074012E552947B
:101970000E500C7554FF755502755625021A31E547
:1019800052C39407500C7554FF75550275562802C2
:101990001A317554FF75550275562B021A31E552EE
:1019A000D394074011E552940E500B7554FF7555B2
:1019B0000275562E807BE552C39407500B7554FF79
:1019C00075550275563180697554FF755502755607
:1019D00034805EE552D394074011E552940E500BCB
:1019E0007554FF7555027556378046E552C3940706
:1019F000500B7554FF75550275563A80347554FF77
:101A000075550275563D8029E552B40E0B7554FF8D
:101A10007555027556408019E552B4070B7554FF91
:101A200075550275564380097554FF7555027556F4
:101A300046755AFF755B02755C497B0AE4FD7F01C0
:101A400012245385545A85555B85565C7B02AD2222
:071A5000AF2312245305220D
:011A5700226C
:1023BD0012278D755AFF755B02755C547B0AE4FD1F
:1023CD007F01122453755AFF755B02755C607B0AA1
:1023DD00E4FD7F02122453755AFF755B02755C6B29
:1023ED007B0CE4FD7F03122453755AFF755B027558
:0B23FD005C787B0CE4FD7F040224539D
:1024DB0012278D755AFF755B02755C857B0CE4FDCD
:1024EB007F01122453755AFF755B02755C927B0C4E
:1024FB00E4FD7F02122453755AFF755B02755C6015
:09250B007B0AE4FD7F0302245366
:1024080012278D755AFF755B02755C9E7B10E4FD83
:102418007F01122453755AFF755B02755CAE7B0C05
:102428007D017F02122453755AFF755B02755CBBF0
:102438007B0C7D017F03122453755AFF755B02756F
:0B2448005CC87B0E7D017F0402245362
:07231A00C28EC2C5752F023F
:1023210012278D755AFF755B02755CD77B0CE4FD36
:102331007F01122453755AFF755B02755CE47B10B3
:10234100E4FD7F02122453755AFF755B02755CF53B
:102351007B10E4FD7F03122453755AFF755B0375EF
:0B2361005C067B0EE4FD7F04022453A9
:10260B0012278D755AFF755B03755C157B0AE4FD0C
:10261B007F01122453755AFF755B03755C207B0E8B
:07262B00E4FD7F02022453CD
:101A5800D20A12278D755AFF755B03755C2F7B08B8
:101A6800E4FD7F01122453755AFF755B03755C38DA
:101A78007B0FE4FD7F02122453755AFF755B0375D3
:101A88005C487B10E4FD7F031224531225E41227DF
:101A98008D755AFF755B03755C597B08E4FD7F0102
:101AA800122453200A03021C3EE580547F647F7091
:0C1AB80003021C3EE59054F064F060470F
:101AC4001221048F46E54624E8601A24F660212496
:101AD400F6602B241E70307531FF7532037533CDDB
:101AE400E4F53E80227531FF7532037533DB8014D3
:101AF4007531FF7532037533E9753E028009C20AF8
:071B0400C2C5C28E753E014F
:101B0B00E58030E022E53DD394FA400FE53E75F0D9
:101B1B0007A404121875E4F53DB2CCAB31AA32A977
:101B2B00331216C0021C27E58030E126E53DD39425
:101B3B00D24010E53E75F007A42402121875B2CC02
:101B4B00E4F53DAB31AA32A9339000021216EB0239
:101B5B001C27E58030E21EE53DD394C840081218DF
:101B6B006DB2CCE4F53DAB31AA32A933900004122F
:101B7B0016EB021C27E58030E326E53DD394C840E5
:101B8B0010E53E75F007A42404121875B2CCE4F5E9
:101B9B003DAB31AA32A9339000061216EB021C277B
:101BAB00E58030E425E53DD394FA4010E53E75F031
:101BBB0007A42405121875B2CCE4F53DAB31AA325B
:101BCB00A9339000081216EB8052E58030E525E52D
:101BDB003DD394C84010E53E75F007A424061218B7
:101BEB0075E4F53DB2CCAB31AA32A93390000A12A1
:101BFB0016EB8028E58030E633E53DD394C84010E2
:101C0B00E53E75F007A42407121875B2CCE4F53D38
:101C1B00AB31AA32A93390000C1216EBFDACF0ECF1
:101C2B00F58DAF05EFF58BD28E021AABC28EC2C506
:031C3B00021AABDF
:011C3E002283
:0425B300AB46AF3E46
:1025B700EF75F007A42DFF74002BF582E43400F5C6
:1025C70083EFF074012BF582E43400F5837401F096
:0D25D70074022BF582E43400F583E4F02259
:10135B00E4F546C20AC20B755AFF755B03755C62F6
:10136B007B0AFD7F01122453755AFF755B01755C77
:10137B00AF7B0BE4FD7F02122453755AFF755B01A3
:10138B00755CBB7B09E4FD7F03122453755AFF7513
:10139B005B01755CC57B0DE4FD7F04122453300AA1
:0413AB0003021667BC
:1013AF001221048F47E54724F2603224F760261498
:1013BF00603A24F6604524F7606014604D241F6086
:1013CF00030214A8300B030214A812278D122776DC
:1013DF00D20B0214A8D20A12231A0214A87531FFD5
:1013EF007532037533CDE4F53E0214A87531FF75E0
:1013FF0032037533DB753E010214A87531FF753268
:10140F00037533E9753E020214A8D20AC20CC20D4D
:0A141F007D01E4FF12187C0214A8FE
:10142900E4F548755AFF755B03755C6D7B0AFD7FB2
:10143900011224531225E412278D755AFF755B0397
:10144900755C627B0AE4FD7F01122453755AFF75AE
:101459005B01755CAF7B0BE4FD7F02122453755A67
:10146900FF755B01755CBB7B09E4FD7F03122453A7
:10147900755AFF755B02755C607B0AE4FD7F041297
:101489002453C2CCD2CDE4F546F54874002548F57D
:0F14990082E43400F583E4F00548E548B464ECE0
:1014A800200B030213A9E546D39460401AC20BE44B
:1014B800F54612278D755AFF755B03755C787B08B6
:1014C800E4FD7F01122453E58030E032E53DD394FA
:1014D800FA401F7D011225B3E53E75F007A404FF0D
:1014E800C20CC20D12187CE4F53DB2CC740325463B
:1014F800F546AB31AA32A9331216C0021650E58060
:1015080030E137E53DD394D240217D021225B3E581
:101518003E75F007A42402FFC20CC20D1D12187CF0
:10152800B2CCE4F53D74032546F546AB31AA32A9A1
:10153800339000021216EB021650E58030E226E5E1
:101548003DD394C84010AB46121866B2CCE4F53DC2
:1015580074032546F546AB31AA32A933900004122C
:1015680016EB021650E58030E335E53DD394C840CC
:101578001FAB467D04AF3E1225B7E53E75F007A4C4
:101588002404121875B2CCE4F53D74032546F546DB
:10159800AB31AA32A9339000061216EB021650E5B9
:1015A8008030E434E53DD394FA401FAB467D05AF67
:1015B8003E1225B7E53E75F007A42405121875B24A
:1015C800CCE4F53D74032546F546AB31AA32A93380
:1015D8009000081216EB8070E58030E534E53DD3C5
:1015E80094C8401FAB467D06AF3E1225B7E53E7551
:1015F800F007A42406121875E4F53DB2CC7403254F
:1016080046F546AB31AA32A93390000A1216EB8090
:1016180037E58030E642E53DD394C8401FAB467DB0
:1016280007AF3E1225B7E53E75F007A42407121848
:1016380075B2CCE4F53D74032546F546AB31AA32C4
:10164800A93390000C1216EBFDACF0ECF58DAF054C
:0C165800EFF58BD28E0213A9C28EC2C522
:031664000213A9C5
:011667002260
:100FCF00E4F546C20AC20BF547F548300A03021290
:010FDF00A071
:100FE0001221048F49E54924F2603224F760261467
:100FF000603A24F6604524F7606014604D241F6059
:10100000030210D9300B030210D912278D12277654
:10101000D20B0210D9D20A12231A0210D97531FF4D
:101020007532037533CDE4F53E0210D97531FF7585
:1010300032037533DB753E010210D97531FF75320D
:10104000037533E9753E020210D9D20AC20CC20DF3
:0A1050007D01E4FF12187C0210D9A4
:10105A00E4F54A755AFF755B03755C6D7B0AFD7F83
:10106A00011224531225E412278D755AFF755B016C
:10107A00755CA47B0AE4FD7F01122453755AFF753F
:10108A005B01755CAF7B0BE4FD7F02122453755A3A
:10109A00FF755B01755CBB7B09E4FD7F031224537A
:1010AA00755AFF755B02755C607B0AE4FD7F04126A
:1010BA002453C2CCD2CDE4F546F54A7400254AF54C
:0F10CA0082E43400F583E4F0054AE54AB464ECAF
:1010D900200B03020FDAE546D39460401AC20BE4F1
:1010E900F54612278D755AFF755B03755C817B0880
:1010F900E4FD7F01122453E58030E036E53DD394C9
:10110900FA4023AB467D01AF3E1225B7E53E75F0A7
:1011190007A404FFC20CC20D12187CE4F53DB2CC41
:1011290074032546F546AB31AA32A9331216C0021B
:101139001289E58030E13BE53DD394D24025AB46A9
:101149007D02AF3E1225B7E53E75F007A42402FFE4
:10115900C20CC20D1D12187CB2CCE4F53D740325F6
:1011690046F546AB31AA32A9339000021216EB02BA
:101179001289E58030E226E53DD394C84010AB469C
:10118900121866B2CCE4F53D74032546F546AB3139
:10119900AA32A9339000041216EB021289E58030B5
:1011A900E335E53DD394C8401FAB467D04AF3E12FD
:1011B90025B7E53E75F007A42404121875B2CCE4EE
:1011C900F53D74032546F546AB31AA32A9339000A3
:1011D900061216EB021289E58030E434E53DD3941A
:1011E900FA401FAB467D05AF3E1225B7E53E75F0C7
:1011F90007A42405121875B2CCE4F53D74032546FD
:10120900F546AB31AA32A9339000081216EB80706B
:10121900E58030E534E53DD394C8401FAB467D06F3
:10122900AF3E1225B7E53E75F007A42406121875DE
:10123900E4F53DB2CC74032546F546AB31AA32A993
:101249003390000A1216EB8037E58030E642E53D1F
:10125900D394C8401FAB467D07AF3E1225B7E53E84
:1012690075F007A42407121875B2CCE4F53D740390
:101279002546F546AB31AA32A93390000C1216EB7C
:10128900FDACF0ECF58DAF05EFF58BD28E020FDAE0
:04129900C28EC2C57A
:10129D00020FDA12278D755AFF755B03755C8A7B19
:1012AD0008E4FD7F01122453E4F547E547C3942A72
:1012BD005020E5479004F093FF74002547F582E434
:1012CD003400F583E0B50702054874032547F5475B
:1012DD0080D9E548D39423400B755AFF755B037590
:1012ED005C938030E548D394144012E548D39423A1
:1012FD00500B755AFF755B03755C9A8017E548D3E3
:10130D00940A4014E548D39414500D755AFF755B3B
:10131D0003755CA17B06800B755AFF755B03755CCD
:10132D00A87B08E4FD7F021224537F067E00122560
:10133D00E812278DE4F546F54774002547F582E45C
:0D134D003400F583E4F00547E547B464EC97
:01135A002270
:10263200C2C2C2C0D2C17F147E0012265BD2C2E4E3
:10264200F596F59585A05F7F14FE12265BC2C2E562
:042652005F20E7DC42
:012656002261
:06267B00F583121681FF39
:102681008F5E122632D2C2D2C0C2C17596FFE4F566
:0D26910095855EA07F05FE12265BC2C22269
:05269E00E5152516FF03
:1026A3008F5E122632D2C2C2C0C2C17596FFE4F554
:0D26B30095855EA07F01FE12265BC2C2224B
:062499008B478A488949C7
:10249F001226A3E4F54BE54BC3954A502EAB47AA42
:1024AF0048A94975F002E54BA4F58285F083122601
:1024BF007DAB47AA48A94975F002E54BA42401F565
:0B24CF0082E435F012267B054B80CB29
:0124DA0022DF
:022453008B59A3
:10245500BF0105ED2480F55DBF0205ED2490F55D16
:10246500BF0305ED2488F55DBF0405ED2498F55DF2
:10247500AF5D1226A3AF591559EF6017AB5A055C2E
:10248500E55CAA5B7002055B14F9121668FF12265B
:032495008180E261
:012498002221
:022274008F11C8
:10227600E4F512E5112512FF1226A37FFF1226812F
:10228600E4FF1226810512E5112512FF1226A3E4AA
:10229600FF122681E4FF1226810512E512C394027D
:1022A60040D1751202E5112512FF1226A3E4FF1292
:1022B6002681E4FF1226810512E512C3941040E53B
:0122C60022F5
:0222C7008F1373
:1022C900E4F514E5132514FF1226A37FFF122681D6
:1022D900E4FF1226810514E5132514FF1226A3E451
:1022E900FF122681E4FF1226810514E514C3940424
:1022F90040D1751404E5132514FF1226A3E4FF1237
:102309002681E4FF1226810514E514C3941040E5E3
:0123190022A1
:021F42008F15F9
:101F4400E4F51612269E7FFF122681E4FF122681F5
:101F5400051612269EE4FF122681E4FF122681054F
:101F640016E516C3940240DB75160212269EE4FFA2
:101F7400122681E4FF1226810516E516C394064055
:101F8400EAE5152406FF1226A37F18122681E4FF32
:101F9400122681E5152407FF1226A37F3C12268111
:101FA400E4FF122681E5152408FF1226A37F3C12C4
:101FB4002681E4FF122681E5152409FF1226A37F5A
:101FC40018122681E4FF12268175160A12269EE451
:101FD400FF122681E4FF1226810516E516C394102C
:021FE40040EAD1
:011FE60022D8
:021DD7008F1764
:101DD900E4F518E5172518FF1226A37FFF122681BF
:101DE900E4FF1226810518E5172518FF1226A3E43A
:101DF900FF122681E4FF1226810518E518C3940411
:101E090040D1E5172404FF1226A3E4FF122681E43A
:101E1900FF122681E5172405FF1226A3E4FF1226E7
:101E290081E4FF122681E5172406FF1226A37F18F5
:101E3900122681E4FF122681E5172407FF1226A343
:101E49007F3C122681E4FF122681E5172408FF1240
:101E590026A37F3C122681E4FF122681E517240977
:101E6900FF1226A37F18122681E4FF122681751816
:101E79000AE5172518FF1226A3E4FF122681E4FFBD
:0C1E89001226810518E518C3941040E5EE
:011E9500222A
:10254A007F341226A37F361226A3E4F519E519244F
:10255A0080FF1226A37F801226A3E4F51AE4FF1255
:10256A002681051AE51AC3942040F20519E519C314
:04257A00942040D990
:01257E00223A
:061FE7008F468D478B4878
:101FED007F341226A37F361226A3E4F54EE54EC3A9
:101FFD0095485072E546254EFF1226A37F80122686
:10200D00A3E4F54FE54FC39547501CE547854EF0CA
:10201D00A4254FF582E435F0F583AB49AA4AA94BC7
:10202D0012267D054F80DDE4F54CF54DE547FD7C31
:10203D0000C3E54D9DE54C9C5027E54E2548FFE43A
:10204D0033FE1216AEE54D2FFFE54C3EAB49AA4AC5
:10205D00A94B8F8212267B054DE54D70CF054C8027
:0B206D00CB054E021FFA7F300226A3B5
:102763008F1B8D1C7F341226A3AF1C1226A3AF1B15
:032773000226A398
:062202008F088D098B0A14
:10220800E4F50FE50FC3950B5058E509250FFFE4DA
:1022180033FEC3EF9420EE64809480E508C4540F25
:1022280050092480FFE509248080072488FFE509F8
:102238002460250FFD122763E4F510E510C3950A05
:10224800501CE50A850FF0A42510F582E435F0F559
:1022580083AB0CAA0DA90E12267D051080DD050F93
:0C22680080A17F361226A37F300226A33F
:10251400D2C31226577F301226A31226577F0212E7
:1025240026A31226577F0C1226A31226577F0612C3
:1025340026A37F147E0012265B7F801226A3122618
:06254400577F010226A3EF
:10270000AD07AC06ECC313ED1375F008A42480FFED
:10271000ED5401C454F02FFF1226A37F0F0226A30D
:042657007F0A7E0078
:10265B00E4FDFCC3ED9FEC9E5015E4FBFA0BBB00B5
:0F266B00010AEB64784A70F50DBD00010C80E4A4
:01267A00223D
:0A000E00E4FEEEC39F50030E80F8DD
:0100180022C5
:06236C008B468A478948F8
:102372007F341226A37F021226A37F301226A37F68
:10238200401226A3E4F549AB460548E548AA477042
:1023920002054714F9121668FF122681AB4605485A
:1023A200E548AA477002054714F9121668FF12267B
:0A23B200810549E549C3941040CDB0
:0123BC0022FE
:05278D007F010226A3FC
:0300000002207863
:0C207800787FE4F6D8FD75815F0220BF80
:10166800BB010689828A83E0225002E722BBFE0280
:09167800E32289828A83E49322B3
:10168100BB010CE58229F582E5833AF583E022501E
:1016910006E92582F8E622BBFE06E92582F8E22268
:0D16A100E58229F582E5833AF583E4932282
:1016AE00EF8DF0A4A8F0CF8CF0A428CE8DF0A42E50
:0216BE00FE220A
:1016C000BB010A89828A83E0F5F0A3E022500687F5
:1016D000F009E71922BBFE07E3F5F009E3192289B7
:0B16E000828A83E493F5F074019322EA
:1016EB00BB0110E58229F582E5833AF583E0F5F03D
:1016FB00A3E0225009E92582F886F008E622BBFE1A
:10170B000AE92582F8E2F5F008E222E5832AF5835F
:08171B00E993F5F0A3E9932224
:10172300E88FF0A4CC8BF0A42CFCE98EF0A42CFC65
:101733008AF0EDA42CFCEA8EF0A4CDA8F08BF0A4E3
:101743002DCC3825F0FDE98FF0A42CCD35F0FCEB42
:101753008EF0A4FEA9F0EB8FF0A4CFC5F02ECD3907
:0F176300FEE43CFCEAA42DCE35F0FDE43CFC2274
:1017720075F008758200EF2FFFEE33FECD33CDCC2E
:1017820033CCC58233C5829BED9AEC99E5829840B1
:101792000CF582EE9BFEED9AFDEC99FC0FD5F0D68E
:1017A200E4CEFBE4CDFAE4CCF9A88222B800C1B9B8
:1017B2000059BA002DEC8BF084CFCECDFCE5F0CBF6
:1017C200F97818EF2FFFEE33FEED33FDEC33FCEB2F
:1017D20033FB10D703994004EB99FB0FD8E5E4F9EA
:1017E200FA227818EF2FFFEE33FEED33FDEC33FCD7
:1017F200C933C910D7059BE99A4007EC9BFCE99ACB
:10180200F90FD8E0E4C9FAE4CCFB2275F010EF2F0F
:10181200FFEE33FEED33FDCC33CCC833C810D7070F
:101822009BEC9AE899400AED9BFDEC9AFCE899F84A
:0E1832000FD5F0DAE4CDFBE4CCFAE4C8F922DD
:10184000D083D082F8E4937012740193700DA3A337
:1018500093F8740193F5828883E47374029368604B
:06186000EFA3A3A380DF4B
:10208400020AE1E493A3F8E493A34003F68001F287
:1020940008DFF48029E493A3F85407240CC8C3335D
:1020A400C4540F4420C8834004F456800146F6DF2C
:1020B400E4800B0102040810204080901E96E47E08
:1020C400019360BCA3FF543F30E509541FFEE49321
:1020D400A360010ECF54C025E060A840B8E493A3E8
:1020E400FAE493A3F8E493A3C8C582C8CAC583CA13
:1020F400F0A3C8C582C8CAC583CADFE9DEE780BECB
:011F4100009F
:00000001FF
